:0B013000C100010D00010E00010C00D9
:10011A008F0B8E0A8D098C08780874FF1200FCEC8C
:06012A004D4E4F70F32260
:03000B0002013CB3
:09013C00300003B2B532C2B53245
:10009A00E4F5B1F5B2D2B3438E80F589758A487515
:1000AA008C77D28CD2A9D2AFD2B2D2B37FE87E03F8
:1000BA007D007C0012011AC2B27F647E007D007C42
:1000CA000012011A30B304050E8002050DE50CB4C6
:1000DA00401AE50DC3950E4006D2B4C2008004C290
:1000EA00B4D200E4F50CF50EF50D80BC050C80B811
:0300000002000EED
:0C000E00787FE4F6D8FD758120020055D3
:1000FA007401FF3395E0FEFDFC080808E6CF2FF6F1
:10010A0018E6CE3EF618E6CD3DF618E6CC3CF622C9
:10001A0002009AE493A3F8E493A34003F68001F262
:10002A0008DFF48029E493A3F85407240CC8C333E7
:10003A00C4540F4420C8834004F456800146F6DFB6
:10004A00E4800B0102040810204080900130E47E15
:10005A00019360BCA3FF543F30E509541FFEE493AB
:10006A00A360010ECF54C025E060A840B8E493A372
:10007A00FAE493A3F8E493A3C8C582C8CAC583CA9D
:10008A00F0A3C8C582C8CAC583CADFE9DEE780BE55
:01013B0000C3
:00000001FF
